{
  "contractName": "GovernmentApprovedManufacturers",
  "abi": [
    {
      "inputs": [],
      "payable": false,
      "stateMutability": "nonpayable",
      "type": "constructor"
    },
    {
      "constant": false,
      "inputs": [
        {
          "internalType": "string",
          "name": "manufacturer_pvt_id",
          "type": "string"
        }
      ],
      "name": "register_manufacturer",
      "outputs": [
        {
          "internalType": "bool",
          "name": "",
          "type": "bool"
        }
      ],
      "payable": false,
      "stateMutability": "nonpayable",
      "type": "function"
    },
    {
      "constant": true,
      "inputs": [
        {
          "internalType": "string",
          "name": "manufacturer_pvt_id",
          "type": "string"
        }
      ],
      "name": "is_registered_manufacturer",
      "outputs": [
        {
          "internalType": "bool",
          "name": "",
          "type": "bool"
        }
      ],
      "payable": false,
      "stateMutability": "view",
      "type": "function"
    }
  ],
  "bytecode": "0x608060405234801561001057600080fd5b506100196100be565b60405180602001604052806040518060400160405280601e81526020017f6e687441716473507961736442426773646a3731336e6773644a4b53414400008152508152509050600160008054905010156100b85760008190806001815401808255809150509060018203906000526020600020016000909192909190915060008201518160000190805190602001906100b39291906100d1565b505050505b50610176565b6040518060200160405280606081525090565b828054600181600116156101000203166002900490600052602060002090601f016020900481019282601f1061011257805160ff1916838001178555610140565b82800160010185558215610140579182015b8281111561013f578251825591602001919060010190610124565b5b50905061014d9190610151565b5090565b61017391905b8082111561016f576000816000905550600101610157565b5090565b90565b61047f806101856000396000f3fe608060405234801561001057600080fd5b50600436106100365760003560e01c8063c6d3f77d1461003b578063d8a201d91461010e575b600080fd5b6100f46004803603602081101561005157600080fd5b810190808035906020019064010000000081111561006e57600080fd5b82018360208201111561008057600080fd5b803590602001918460018302840111640100000000831117156100a257600080fd5b91908080601f016020809104026020016040519081016040528093929190818152602001838380828437600081840152601f19601f8201169050808301925050505050505091929192905050506101e1565b604051808215151515815260200191505060405180910390f35b6101c76004803603602081101561012457600080fd5b810190808035906020019064010000000081111561014157600080fd5b82018360208201111561015357600080fd5b8035906020019184600183028401116401000000008311171561017557600080fd5b91908080601f016020809104026020016040519081016040528093929190818152602001838380828437600081840152601f19601f820116905080830192505050505050509192919290505050610323565b604051808215151515815260200191505060405180910390f35b600080600090505b60008054905081101561031857826040516020018082805190602001908083835b6020831061022d578051825260208201915060208101905060208303925061020a565b6001836020036101000a038019825116818451168082178552505050505050905001915050604051602081830303815290604052805190602001206000828154811061027557fe5b9060005260206000200160000160405160200180828054600181600116156101000203166002900480156102e05780601f106102be5761010080835404028352918201916102e0565b820191906000526020600020905b8154815290600101906020018083116102cc575b505091505060405160208183030381529060405280519060200120141561030b57600191505061031e565b80806001019150506101e9565b50600090505b919050565b600061032d610392565b604051806020016040528084815250905060008190806001815401808255809150509060018203906000526020600020016000909192909190915060008201518160000190805190602001906103849291906103a5565b505050506001915050919050565b6040518060200160405280606081525090565b828054600181600116156101000203166002900490600052602060002090601f016020900481019282601f106103e657805160ff1916838001178555610414565b82800160010185558215610414579182015b828111156104135782518255916020019190600101906103f8565b5b5090506104219190610425565b5090565b61044791905b8082111561044357600081600090555060010161042b565b5090565b9056fea265627a7a72315820a00a01de0bcc5e7d528ccde973142665b56cd3063cc0448f79c397846372519e64736f6c63430005100032",
  "source": "pragma solidity ^0.5.0;\n\ncontract GovernmentApprovedManufacturers {\n\n    struct ApprovedManufacturer {\n        string manufacturer_pvt_id;\n    }\n\n    // Index of a medicine is its medcine_id.\n    ApprovedManufacturer[] approved_manufacturers;\n\n\n    // Add a dummy manufacturer\n    constructor() public {\n        ApprovedManufacturer memory approved_manufacturer = ApprovedManufacturer('nhtAqdsPyasdBBgsdj713ngsdJKSAD');\n        if (approved_manufacturers.length < 1){\n            approved_manufacturers.push(approved_manufacturer);\n            \n        }\n    }\n\n    // Register a Manufacturer\n    function register_manufacturer(string memory manufacturer_pvt_id) public returns (bool) {\n\n        ApprovedManufacturer memory approved_manufacturer = ApprovedManufacturer(manufacturer_pvt_id);\n        approved_manufacturers.push(approved_manufacturer);\n\n        return true;\n    }\n\n    // Register a Manufacturer\n    function is_registered_manufacturer(string memory manufacturer_pvt_id) public view returns (bool) {\n\n        for (uint i=0; i<approved_manufacturers.length; i++) {\n            if (keccak256(abi.encodePacked(approved_manufacturers[i].manufacturer_pvt_id)) == keccak256(abi.encodePacked(manufacturer_pvt_id))) {\n                return true;\n            }     \n        }\n\n        return false;\n    }\n}",
  "sourcePath": "/Users/chinmoy_2/Desktop/personal/elastos_medicine_blockchain/contracts/GovernmentApprovedManufacturers.sol",
  "compiler": {
    "name": "solc",
    "version": "0.5.16+commit.9c3226ce.Emscripten.clang"
  },
  "schemaVersion": "3.3.4",
  "updatedAt": "2021-03-20T00:45:24.281Z",
  "devdoc": {
    "methods": {}
  },
  "userdoc": {
    "methods": {}
  }
}