{
  "contractName": "MedicineTransactions",
  "abi": [
    {
      "inputs": [],
      "payable": false,
      "stateMutability": "nonpayable",
      "type": "constructor"
    },
    {
      "constant": false,
      "inputs": [
        {
          "internalType": "string",
          "name": "medcine_id",
          "type": "string"
        }
      ],
      "name": "add_medicine",
      "outputs": [
        {
          "internalType": "bool",
          "name": "",
          "type": "bool"
        }
      ],
      "payable": false,
      "stateMutability": "nonpayable",
      "type": "function"
    },
    {
      "constant": true,
      "inputs": [
        {
          "internalType": "string",
          "name": "medcine_id",
          "type": "string"
        }
      ],
      "name": "check_valid_medicine",
      "outputs": [
        {
          "internalType": "bool",
          "name": "",
          "type": "bool"
        }
      ],
      "payable": false,
      "stateMutability": "view",
      "type": "function"
    }
  ],
  "bytecode": "0x608060405234801561001057600080fd5b506100196100be565b60405180602001604052806040518060400160405280601281526020017f6d6564506173646e685555556e3931326e7300000000000000000000000000008152508152509050600160008054905010156100b85760008190806001815401808255809150509060018203906000526020600020016000909192909190915060008201518160000190805190602001906100b39291906100d1565b505050505b50610176565b6040518060200160405280606081525090565b828054600181600116156101000203166002900490600052602060002090601f016020900481019282601f1061011257805160ff1916838001178555610140565b82800160010185558215610140579182015b8281111561013f578251825591602001919060010190610124565b5b50905061014d9190610151565b5090565b61017391905b8082111561016f576000816000905550600101610157565b5090565b90565b61047f806101856000396000f3fe608060405234801561001057600080fd5b50600436106100365760003560e01c80639d17a74f1461003b578063d63ae0551461010e575b600080fd5b6100f46004803603602081101561005157600080fd5b810190808035906020019064010000000081111561006e57600080fd5b82018360208201111561008057600080fd5b803590602001918460018302840111640100000000831117156100a257600080fd5b91908080601f016020809104026020016040519081016040528093929190818152602001838380828437600081840152601f19601f8201169050808301925050505050505091929192905050506101e1565b604051808215151515815260200191505060405180910390f35b6101c76004803603602081101561012457600080fd5b810190808035906020019064010000000081111561014157600080fd5b82018360208201111561015357600080fd5b8035906020019184600183028401116401000000008311171561017557600080fd5b91908080601f016020809104026020016040519081016040528093929190818152602001838380828437600081840152601f19601f820116905080830192505050505050509192919290505050610250565b604051808215151515815260200191505060405180910390f35b60006101eb610392565b604051806020016040528084815250905060008190806001815401808255809150509060018203906000526020600020016000909192909190915060008201518160000190805190602001906102429291906103a5565b505050506001915050919050565b600080600090505b60008054905081101561038757826040516020018082805190602001908083835b6020831061029c5780518252602082019150602081019050602083039250610279565b6001836020036101000a03801982511681845116808217855250505050505090500191505060405160208183030381529060405280519060200120600082815481106102e457fe5b90600052602060002001600001604051602001808280546001816001161561010002031660029004801561034f5780601f1061032d57610100808354040283529182019161034f565b820191906000526020600020905b81548152906001019060200180831161033b575b505091505060405160208183030381529060405280519060200120141561037a57600191505061038d565b8080600101915050610258565b50600090505b919050565b6040518060200160405280606081525090565b828054600181600116156101000203166002900490600052602060002090601f016020900481019282601f106103e657805160ff1916838001178555610414565b82800160010185558215610414579182015b828111156104135782518255916020019190600101906103f8565b5b5090506104219190610425565b5090565b61044791905b8082111561044357600081600090555060010161042b565b5090565b9056fea265627a7a72315820b0e62ec899aee74d3b870ee31c3dd75d1406748989152e719d58064859a0101064736f6c63430005100032",
  "source": "pragma solidity ^0.5.0;\n\ncontract MedicineTransactions { \n\n    struct Medicine {\n        string medcine_id;\n    }\n\n  // Index of a medicine is its medcine_id.\n  Medicine[] medicines;\n\n  \n    // Add a dummy medicine\n    constructor() public {\n        Medicine memory medicine = Medicine('medPasdnhUUUn912ns');\n        if (medicines.length < 1){\n            medicines.push(medicine);\n        }\n    }\n\n  function add_medicine(string memory medcine_id) public returns (bool){\n\n        Medicine memory medicine = Medicine(medcine_id);\n        medicines.push(medicine);\n\n        return true;\n  }\n\n    // Register a Manufacturer\n    function check_valid_medicine(string memory medcine_id) public view returns (bool) {\n\n        for (uint i=0; i<medicines.length; i++) {\n            if (keccak256(abi.encodePacked(medicines[i].medcine_id)) == keccak256(abi.encodePacked(medcine_id))) {\n                return true;\n            }     \n        }\n\n        return false;\n    }\n}",
  "sourcePath": "/Users/chinmoy_2/Desktop/personal/elastos_medicine_blockchain/contracts/MedicineTransactions.sol",
  "compiler": {
    "name": "solc",
    "version": "0.5.16+commit.9c3226ce.Emscripten.clang"
  },
  "schemaVersion": "3.3.4",
  "updatedAt": "2021-03-20T01:21:26.177Z",
  "devdoc": {
    "methods": {}
  },
  "userdoc": {
    "methods": {}
  }
}